:100000000C9446000C9463000C9463000C94630001
:100010000C9463000C9463000C9463000C946300D4
:100020000C9463000C9463000C9463000C946300C4
:100030000C9463000C9463000C9463000C946300B4
:100040000C9465000C9463000C94E4000C945A0129
:100050000C9463000C9463000C9463000C94630094
:100060000C9463000C9463000C9463000C94630084
:100070000C9463000C9463000C9463000C94630074
:100080000C9463000C9463000C94630011241FBE55
:10009000CFEFD0E1DEBFCDBF11E0A0E0B1E0E2E9FB
:1000A000F5E000E00BBF02C007900D92A832B10747
:1000B000D9F711E0A8E2B1E001C01D92A333B10766
:1000C000E1F70C94F3010C9400001F920F920FB60D
:1000D0000F9211248F939F93AF93BF938091280128
:1000E00090912901A0912A01B0912B01805890484C
:1000F000AF4FBF4F8093280190932901A0932A010D
:10010000B0932B01BF91AF919F918F910F900FBE34
:100110000F901F9018955F9BFECF8CB19927089583
:10012000CF93DF93EC01DB01EA81FB818D819E811E
:10013000E80FF91F8C9180832A813B818C81E82F05
:10014000FF27C9010196BF010E94A2029C019B8367
:100150008A83888199812817390739F4C901019662
:10016000BF010E94A20299838883DF91CF910895F5
:10017000CF93DF93FC01C0E0D0E0428153818481C2
:10018000282F3327CA010196B9010E94A2022081BB
:1001900031818217930711F4C1E0D0E0CE01DF91E5
:1001A000CF9108955D9BFECF8CB90895FC0140E08E
:1001B00050E022813381808191812817390711F421
:1001C00041E050E0CA0108951F920F920FB60F92BE
:1001D00011242F933F934F935F936F937F938F934C
:1001E0009F93AF93BF93CF93DF93EF93FF930E94BF
:1001F0008B008883BE018CE291E00E9490008CE22B
:1002000091E00E94B800813089F580913101909190
:1002100032010E944E029093010180930001E0910F
:100220003101F091320180810E94D2008091310130
:100230009091320101969093320180933101409167
:100240002C0150912D0180913001282F3327CA01B4
:100250000196B9010E94A20290932D0180932C0176
:100260008CE291E00E94D6008823C9F281E080935D
:100270000201FF91EF91DF91CF91BF91AF919F91DB
:100280008F917F916F915F914F913F912F910F903F
:100290000FBE0F901F901895DC0190E08C91882381
:1002A00031F09F5FFD01E90FF11D8081F8CF892FAB
:1002B000992708951F920F920FB60F9211241F9342
:1002C0002F933F934F935F936F937F938F939F935E
:1002D000AF93BF93EF93FF93CF93DF93CDB7DEB789
:1002E0002797DEBFCDBF809102018130F9F483E012
:1002F00091E09F838E830E944C018D83EE81FF816C
:1003000080810E94D2001D8111501D838E819F81AA
:1003100001969F838E83112389F784E291E09F8366
:100320008E830E944C018D83109302012796F894CE
:10033000DEBFCDBFDF91CF91FF91EF91BF91AF9124
:100340009F918F917F916F915F914F913F912F91ED
:100350001F910F900FBE0F901F9018956770E82F98
:10036000FF27662311F4CF010895262F3327AF010D
:10037000022E02C0440F551F0A94E2F788E090E075
:10038000821B930B02C0F595E7958A95E2F7842FBF
:100390008E2B992708958FEF81BB82BB78940895A7
:1003A0009C01832F99278093900029B988EB8AB903
:1003B0008EE08093950083E08093300110922D01B0
:1003C00010922C0110922F0110922E01089585E0B9
:1003D00083BF81E087BF12BE8FE590E00E94D0010D
:1003E0000E94CB010895CFEFD0E1DEBFCDBF0E94C8
:1003F000E701C0E88091000190910101AA27BB2785
:10040000BC01CD0120E030E041EE50E00E948302CB
:100410009B01AC018091280190912901A0912A01B2
:10042000B0912B01281739074A075B0718F761E0DD
:100430008C2F0E94AE01C82F809582BB109228019C
:100440001092290110922A0110922B01D3CF8EE134
:1004500081BD8EE081BD08950F931F93CF93DF93ED
:10046000DC01ED91FC91EC018D819E81E80FF91F7B
:100470008081F8018083688179818C81482F55279C
:10048000CB010196BA010E94A20299838883802F32
:100490009927DF91CF911F910F910895FC01882733
:1004A0009927E89421912223F1F02032D9F32930C1
:1004B000C9F32A30B9F32C30A9F32D3099F326373C
:1004C00089F32B3219F02D3221F4689421912223E3
:1004D00051F0203344F02A3334F420530E947B023D
:1004E000820F911DF3CF8115910521F01EF48095A7
:1004F0009095019608957AE0979F902D879F802D83
:10050000910D11240895629FD001739FF001829F85
:10051000E00DF11D649FE00DF11D929FF00D839F92
:10052000F00D749FF00D659FF00D9927729FB00D2F
:10053000E11DF91F639FB00DE11DF91FBD01CF0142
:100540001124089597FB092E07260AD077FD04D0C1
:100550000CD006D000201AF4709561957F4F089555
:10056000F6F7909581959F4F0895AA1BBB1B51E10B
:1005700007C0AA1FBB1FA617B70710F0A61BB70B13
:10058000881F991F5A95A9F780959095BC01CD01B8
:020590000895CC
:100592000100010A0D53594E3A43484141524F4E10
:1005A200494920544F20594F5552205345564943EB
:0805B200450A0D0053594E00EB
:00000001FF
