:100000000C9446000C9465000C9465000C946500FB
:100010000C9465000C9465000C9465000C946500CC
:100020000C9465000C9465000C9465000C946500BC
:100030000C9465000C9465000C9465000C946500AC
:100040000C9465000C9465000C9465000C9465009C
:100050000C9465000C9467000C9465000C9465008A
:100060000C9465000C9465000C9465000C9465007C
:100070000C9465000C9465000C9465000C9465006C
:100080000C9465000C9465000C94650011241FBE4F
:10009000CFEFD0E1DEBFCDBF11E0A0E0B1E0E6E2FE
:1000A000F2E000E00BBF02C007900D92A030B10754
:1000B000D9F711E0A0E0B1E001C01D92A430B10772
:1000C000E1F70E94AE000C9411010C9400001F9205
:1000D0000F920FB60F9200905B000F9211242F9396
:1000E0003F938F939F93AF93BF93EF93FF93DF93D0
:1000F000CF93CDB7DEB7E4E2F0E08081282F30E087
:10010000E5E2F0E08081882F90E0982F8827822B0D
:10011000932BAA2797FDA095BA2F80930001909367
:100120000101A0930201B0930301A6E2B0E0E6E270
:10013000F0E0808180648C93CF91DF91FF91EF910B
:10014000BF91AF919F918F913F912F910F9000920E
:100150005B000F900FBE0F901F901895DF93CF9309
:1001600000D00F92CDB7DEB70E94E400809100016D
:1001700090910101A0910201B09103018F3F91057F
:10018000A105B10551F048F0A2E3B0E0E2E3F0E0F0
:10019000808181608C938C91E9CFE2E3F0E08081F3
:1001A000E2E3F0E010828081E1CFDF93CF93CDB71F
:1001B000DEB7E1E3F0E08FEF8083E2E3F0E08FEF82
:1001C0008083CF91DF910895DF93CF93CDB7DEB7D2
:1001D000A6E2B0E0E6E2F0E0808183608C93A7E2E3
:1001E000B0E0E7E2F0E0808180648C93A6E2B0E0CA
:1001F000E6E2F0E08081886A8C93A7E2B0E0E7E273
:10020000F0E0808183608C937894A6E2B0E0E6E22F
:10021000F0E0808180648C930E94D500CF91DF91C3
:060220000895F894FFCFE1
:00000001FF
