:100000000C9446000C9463000C9463000C94630001
:100010000C9463000C9463000C9463000C946300D4
:100020000C9463000C9463000C9463000C946300C4
:100030000C9463000C9463000C9463000C946300B4
:100040000C9463000C9463000C9465000C9486007F
:100050000C9463000C94E5000C9463000C94630012
:100060000C9463000C9463000C9463000C94630084
:100070000C9463000C9463000C9463000C94630074
:100080000C9463000C9463000C94630011241FBE55
:10009000CFEFD0E1DEBFCDBF11E0A0E0B1E0E4E6FC
:1000A000F4E000E00BBF02C007900D92A832B10748
:1000B000D9F711E0A8E2B1E001C01D92A133B10768
:1000C000E1F70C9435010C9400001F920F920FB6CB
:1000D0000F9211248F9381E0809302018F910F90F2
:1000E0000FBE0F901F901895DC0190E08C91882333
:1000F00031F09F5FFD01E90FF11D8081F8CF892F5D
:10010000992708955D9BFECF8CB908951F920F9299
:100110000FB60F9211241F932F933F934F935F932A
:100120006F937F938F939F93AF93BF93EF93FF93BF
:10013000CF93DF93CDB7DEB7A897DEBFCDBF809159
:100140000201813051F5AE014F5F5F4F81E223E044
:1001500031E0DA01F90101900D928A95E1F758A793
:100160004FA3CA010E9474008EA3EFA1F8A580815D
:100170000E9482001EA111501EA38FA198A5019676
:1001800098A78FA3112389F784E291E098A78FA302
:100190000E9474008EA310930201A896F894DEBF0B
:1001A000CDBFDF91CF91FF91EF91BF91AF919F9123
:1001B0008F917F916F915F914F913F912F911F91FF
:1001C0000F900FBE0F901F9018951F920F920FB6B1
:1001D0000F9211242F933F938F939F9384B1282FD5
:1001E000332785B19927982F8827282B392B3093CF
:1001F000290120932801369A9F918F913F912F9149
:100200000F900FBE0F901F9018958FEF81BB82BB90
:10021000789408959C01892F99278093900029B99B
:1002200088EB8AB98EE08093950083E080932E015D
:1002300010922B0110922A0110922D0110922C0184
:10024000089586B1876086B987B1806C87B986B119
:10025000886A86B9369A08958FE590E00E940A016F
:100260000E9421010E9405010895CFEFD0E1DEBF79
:10027000CDBF0E942C0120E8809128019091290196
:10028000892B11F420E034C080912801909129013C
:10029000089710F421E02CC0809128019091290149
:1002A000809710F422E024C08091280190912901C8
:1002B0008038910510F424E01BC0809128019091B2
:1002C00029018F3F910509F010F428E011C08091B9
:1002D0002801909129018050924010F420E108C03B
:1002E00080912801909129018150924008F020E8E6
:1002F00022BBC2CF5F9BFECF8CB199270895CF93CD
:10030000DF93EC01DB01EA81FB818D819E81E80FA7
:10031000F91F8C9180832A813B818C81E82FFF27F4
:10032000C9010196BF010E940B029C019B838A8335
:10033000888199812817390739F4C9010196BF01CD
:100340000E940B0299838883DF91CF910895CF9308
:10035000DF93DC01ED91FC91EC018D819E81E80F32
:10036000F91F808180930000688179818C81482FFA
:100370005527CB010196BA010E940B02998388830D
:10038000809100009927DF91CF910895CF93DF935B
:10039000FC01C0E0D0E0428153818481282F3327C3
:1003A000CA010196B9010E940B0220813181821796
:1003B000930711F4C1E0D0E0CE01DF91CF91089511
:1003C000FC0140E050E02281338180819181281737
:1003D000390711F441E050E0CA0108956770E82F31
:1003E000FF27662311F4CF010895262F3327AF018D
:1003F000022E02C0440F551F0A94E2F788E090E0F5
:10040000821B930B02C0F595E7958A95E2F7842F3E
:100410008E2B9927089597FB092E07260AD077FD82
:1004200004D00CD006D000201AF4709561957F4F4F
:100430000895F6F7909581959F4F0895AA1BBB1BD1
:1004400051E107C0AA1FBB1FA617B70710F0A61BD4
:10045000B70B881F991F5A95A9F780959095BC01F5
:04046000CD0108952D
:100464000100010A0D53594E3A43484141524F4E3F
:10047400494920544F20594F55522053455649431A
:08048400450A0D0053594E001A
:00000001FF
