:100000000C9446000C9463000C9463000C94630001
:100010000C9463000C9463000C9463000C946300D4
:100020000C9463000C9463000C9463000C946300C4
:100030000C9463000C9463000C9463000C946300B4
:100040000C9484000C9463000C9463000C94630083
:100050000C9463000C9463000C9463000C94630094
:100060000C9463000C9463000C9463000C94630084
:100070000C9463000C9463000C9463000C94630074
:100080000C9463000C9463000C94630011241FBE55
:10009000CFEFD0E1DEBFCDBF11E0A0E0B1E0ECECEE
:1000A000F2E000E00BBF02C007900D92A830B1074C
:1000B000D9F711E0A8E0B1E001C01D92AC30B10762
:1000C000E1F70C94B0000C940000CF93DF93CDB710
:1000D000DEB78FEF809331008FEF809332007894FA
:1000E000DF91CF910895CF93DF93CDB7DEB787E04F
:1000F0008093530081E080935700109252000E9439
:100100006500DF91CF9108951F920F920FB60F9265
:1001100011248F939F93AF93BF93CF93DF93CDB76A
:10012000DEB78091080190910901A0910A01B09178
:100130000B0180589048AF4FBF4F809308019093B8
:100140000901A0930A01B0930B01DF91CF91BF91F8
:10015000AF919F918F910F900FBE0F901F901895A8
:10016000C2EFD0E1DEBFCDBF0E94730080E889837B
:1001700088E0DE011296E0E0F1E001900D928A95B0
:10018000E1F7CE0102969B878A87CE0102969B8774
:100190008A87EA85FB8580819927AA27BB2720E0EB
:1001A00032EC41E050E0BC01CD010E9447019B01CF
:1001B000AC018091080190910901A0910A01B091D0
:1001C0000B01281739074A075B0718F761E0898197
:1001D0000E94070189838981809580933200EA8596
:1001E000FB858081882334F08A859B8501969B87D7
:1001F0008A8704C0CE0102969B878A8710920801E5
:100200001092090110920A0110920B01C2CFCF93F4
:10021000DF93CDB7DEB724970FB6F894DEBF0FBEDD
:10022000CDBF89836A838A8187708A83882329F472
:10023000898199279C838B831FC08981282F33272D
:100240008A819927B90102C0660F771F8A95E2F764
:100250008981482F55278A81282F332788E090E00D
:10026000821B930B02C0559547958A95E2F7CA0108
:10027000862B99279C838B838B819C8124960FB638
:10028000F894DEBF0FBECDBFDF91CF910895629F7E
:10029000D001739FF001829FE00DF11D649FE00D7E
:1002A000F11D929FF00D839FF00D749FF00D659FDF
:1002B000F00D9927729FB00DE11DF91F639FB00DDE
:0C02C000E11DF91FBD01CF0111240895BC
:0802CC00100820301010108012
:00000001FF
