:100000000C9446000C9463000C9463000C94630001
:100010000C9463000C9463000C9463000C946300D4
:100020000C9463000C9463000C9463000C946300C4
:100030000C9463000C9463000C9463000C946300B4
:100040000C9463000C9463000C9463000C946300A4
:100050000C9463000C9463000C9463000C94630094
:100060000C9463000C9463000C9463000C94630084
:100070000C9463000C9463000C9463000C94630074
:100080000C9463000C9463000C94630011241FBE55
:10009000CFEFD0E1DEBFCDBF11E0A0E0B1E0E8EAF4
:1000A000F1E000E00BBF02C007900D92A030B10755
:1000B000D9F711E0A0E0B1E001C01D92A030B10776
:1000C000E1F70C94CB000C940000CF93DF93CDB7F5
:1000D000DEB78FEF809331008FEF80933200DF9196
:1000E000CF910895CF93DF93CDB7DEB70E9465001F
:1000F000DF91CF910895CF93DF93CDB7DEB72397EC
:100100000FB6F894DEBF0FBECDBF81E08983898131
:100110008823D4F089818095809332001B821A82D3
:100120008A819B812FEF8F3F920731F08A819B81DB
:1001300001969B838A83F4CF8981282F3327C901B5
:10014000820F931F8983E3CF80E88983898182307E
:10015000C8F089818095809332001B821A828A813F
:100160009B812FEF8F3F920731F08A819B8101960F
:100170009B838A83F4CF8981982F96958981891BE7
:100180008983E4CF23960FB6F894DEBF0FBECDBFB0
:10019000DF91CF910895CFEFD0E1DEBFCDBF0E94B8
:0801A00072000E947B00FDCFFC
:00000001FF
