:100000000C9446000C9465000C9465000C946500FB
:100010000C9465000C9465000C9465000C946500CC
:100020000C9465000C9465000C9465000C946500BC
:100030000C9465000C9465000C9465000C946500AC
:100040000C948B000C9465000C9465000C94650076
:100050000C9465000C9465000C9465000C9465008C
:100060000C9465000C9465000C9465000C9465007C
:100070000C9465000C9465000C9465000C9465006C
:100080000C9465000C9465000C94650011241FBE4F
:10009000CFEFD0E1DEBFCDBF11E0A0E0B1E0EEE3F5
:1000A000F2E000E00BBF02C007900D92A030B10754
:1000B000D9F711E0A0E0B1E001C01D92A430B10772
:1000C000E1F70E94B7000C941D010C940000DF932F
:1000D000CF93CDB7DEB7E1E3F0E08FEF8083E2E3CB
:1000E000F0E08FEF80837894CF91DF910895DF93D4
:1000F000CF93CDB7DEB7E3E5F0E087E08083E7E5B7
:10010000F0E081E08083E2E5F0E010820E94670089
:10011000CF91DF9108951F920F920FB60F92112485
:100120008F939F93AF93BF93DF93CF93CDB7DEB7FA
:100130008091000190910101A0910201B091030111
:1001400080589048AF4FBF4F8093000190930101BA
:10015000A0930201B0930301CF91DF91BF91AF91C2
:100160009F918F910F900FBE0F901F9018950F9336
:100170001F93DF93CF930F92CDB7DEB70E94770026
:1001800080E889838091000190910101A091020192
:10019000B0910301813020E0920721EEA20720E018
:1001A000B20780F302E310E0898161E00E94E4007D
:1001B0008095F80180831092000110920101109245
:1001C000020110920301DECFDF93CF9300D00F9294
:1001D000CDB7DEB789836A838A8187708A838A81F3
:1001E000882319F429812B8321C08981282F30E0AD
:1001F0008A81882F90E0A90102C0440F551F8A957B
:10020000E2F7CA01682F8981482F50E08A81282FA0
:1002100030E088E090E0821B930B9A0102C0359594
:1002200027958A95E2F7C901862B8B838B810F90E6
:0E0230000F900F90CF91DF910895F894FFCFBB
:00000001FF
