:100000000C9446000C9463000C9463000C94630001
:100010000C9463000C9463000C9463000C946300D4
:100020000C9463000C9463000C9463000C946300C4
:100030000C9463000C9463000C9463000C946300B4
:100040000C9484000C9463000C9463000C94630083
:100050000C9463000C9463000C9463000C94630094
:100060000C9463000C9463000C9463000C94630084
:100070000C9463000C9463000C9463000C94630074
:100080000C9463000C9463000C94630011241FBE55
:10009000CFEFD0E1DEBFCDBF11E0A0E0B1E0E4E3FF
:1000A000F2E000E00BBF02C007900D92A030B10754
:1000B000D9F711E0A0E0B1E001C01D92A430B10772
:1000C000E1F70C94B0000C940000CF93DF93CDB710
:1000D000DEB78FEF809331008FEF809332007894FA
:1000E000DF91CF910895CF93DF93CDB7DEB785E051
:1000F0008093530081E080935700109252000E9439
:100100006500DF91CF9108951F920F920FB60F9265
:1001100011248F939F93AF93BF93CF93DF93CDB76A
:10012000DEB78091000190910101A0910201B09190
:10013000030180589048AF4FBF4F809300019093C8
:100140000101A0930201B0930301DF91CF91BF9110
:10015000AF919F918F910F900FBE0F901F901895A8
:10016000CEEFD0E1DEBFCDBF0E94730080E889836F
:100170008091000190910101A0910201B0910301D1
:10018000813020E0920721EEA20720E0B20780F341
:1001900063E089810E94DA00898389818095809358
:1001A000320010920001109201011092020110928F
:1001B0000301DECFCF93DF93CDB7DEB724970FB621
:1001C000F894DEBF0FBECDBF89836A838A818770B2
:1001D0008A83882329F4898199279C838B831FC074
:1001E0008981282F33278A819927B90102C0660F98
:1001F000771F8A95E2F78981482F55278A81282F12
:10020000332788E090E0821B930B02C055954795F9
:100210008A95E2F7CA01862B99279C838B838B8171
:100220009C8124960FB6F894DEBF0FBECDBFDF9140
:04023000CF910895CD
:00000001FF
