:100000000C9446000C945D000C945D000C945D0013
:100010000C945D000C945D000C945D000C945D00EC
:100020000C945D000C945D000C945D000C945D00DC
:100030000C945D000C945D000C945D000C945D00CC
:100040000C945D000C945D000C945D000C945D00BC
:100050000C945D000C945D000C945D000C945D00AC
:100060000C945D000C945D000C945D000C945D009C
:100070000C945D000C945D000C945D000C945D008C
:100080000C945D000C945D000C945D0011241FBE67
:10009000CFEFD0E1DEBFCDBF11E0A0E0B1E0E4E6FC
:1000A000F1E000E00BBF02C007900D92A030B10755
:1000B000D9F70E94A7000C94B0000C940000DF93C5
:1000C000CF93CDB7DEB7E1E3F0E08FEF8083E2E3DB
:1000D000F0E08FEF8083CF91DF910895DF93CF938E
:1000E000CDB7DEB70E945F00CF91DF910895DF9317
:1000F000CF9300D00F92CDB7DEB781E08B838B8199
:1001000088236CF0E2E3F0E08B81809580831A8293
:10011000198289819A8101969A838983FACF80E82E
:100120008B838B81823068F0E2E3F0E08B818095F5
:1001300080831A82198289819A8101969A838983A0
:10014000FACF0F900F900F90CF91DF910895DF932A
:10015000CF93CDB7DEB70E946E000E947700FDCF2F
:04016000F894FFCF41
:00000001FF
