:100000000C9446000C9463000C9463000C94630001
:100010000C9463000C9463000C9463000C946300D4
:100020000C9463000C9463000C9463000C946300C4
:100030000C9463000C9463000C947E000C94630099
:100040000C9463000C9463000C9463000C946300A4
:100050000C9463000C9463000C9463000C94630094
:100060000C9463000C9463000C9463000C94630084
:100070000C9463000C9463000C9463000C94630074
:100080000C9463000C9463000C94630011241FBE55
:10009000CFEFD0E1DEBFCDBF11E0A0E0B1E0E6EAF6
:1000A000F1E000E00BBF02C007900D92A030B10755
:1000B000D9F711E0A0E0B1E001C01D92A230B10774
:1000C000E1F70C9495000C94000011BA80EC87BB0A
:1000D000789408958FB589628FBD8EB58A608EBD84
:1000E00087B7846087BF88E790E099BD88BD90930B
:1000F0007900809378000E94650008951F920F9206
:100100000FB60F9211248F939F93809100019091CD
:100110000101019690930101809300019F918F91BD
:100120000F900FBE0F901F901895CFEFD0E1DEBF5C
:10013000CDBF0E946A0088B599B5382F80917800AC
:1001400090917900282F41E05FEF75E06FE080919A
:10015000000190910101855F9140C8F3479FC00164
:100160001124380F569FC0011124280F3F3F11F46E
:10017000432F03C0332309F441E02F3F11F4522FE2
:1001800003C0222309F451E0832F992799BD88BD2C
:10019000822F992790937900809378001092010123
:0601A00010920001D4CF13
:00000001FF
